:020000041000EA
:1000000000B5324B212058609868022188439860DF
:10001000D860186158612E4B002199600221596106
:100020000121F02299502B49196001219960352056
:1000300000F044F80222904214D00621196600F024
:1000400034F8196E01211966002018661A6600F04E
:100050002CF8196E196E196E052000F02FF8012189
:100060000842F9D1002199601B49196000215960AB
:100070001A491B48016001219960EB211966A021F2
:10008000196600F012F800219960164914480160C1
:100090000121996001BC002800D000471248134993
:1000A000086003C880F30888084703B5996A0420EC
:1000B0000142FBD001200142F8D103BD02B5186610
:1000C0001866FFF7F2FF186E186E02BD00000240BE
:1000D000000000180000070000035F00212200005C
:1000E000F4000018222000A00001001008ED00E03C
:1000F00000000000000000000000000074B24E7A12
:1001000000200420F7010010C3010010C5010010F9
:10011000C1010010C1010010C1010010C101001097
:10012000C1010010C1010010C1010010C701001081
:10013000C1010010C1010010C9010010CB01001065
:10014000CD010010CD010010CD010010CD01001037
:10015000CD010010CD010010CD010010CD01001027
:10016000CD010010CD010010CD010010CD01001017
:10017000CD010010CD010010CD010010CD01001007
:10018000CD010010CD010010CD010010CD010010F7
:10019000CD010010CD010010CD010010CD010010E7
:1001A000CD010010CD010010CD010010CD010010D7
:1001B000CD010010CD010010CD010010CD010010C7
:1001C00000BE00BE00BE00BE00BE00BE00F04BF888
:1001D000103800BEF2EB8871DC650510FC65051077
:1001E0003402001090A31AE700202149086006C8D5
:1001F00081F3088810471F48006800282FD10DA4FC
:100200000ECC002902D000F012F8F9E71A491B4A77
:10021000002000E001C19142FCD1194988471949E9
:1002200088471949884700BEFDE701C901C29A42C3
:10023000FBD37047FC650510C0000020680F00204C
:10024000A47405100000042000000420A47405100C
:1002500000100420001004200000000070470B482C
:1002600001F0D8F80047EFF30580C0B270470000F6
:1002700008ED00E0000000D0680F002044C7002017
:10028000196D00109D0B00103D6E001057560000B8
:1002900006005250ABB3605320DF011006005250ED
:1002A000861C030238DF0110060052505422A29D22
:1002B00054DF011005005250DE65F468A474051087
:1002C000F8B5C04610B5064C2378002B07D1054B76
:1002D000002B02D0044800E000BF0123237010BDB2
:1002E0007811002000000000B8CB0110044B10B5BD
:1002F000002B03D00349044800E000BF10BDC046F6
:10030000000000007C110020B8CB011070B5050082
:100310000C00002A25D1002923D0184809F056F9ED
:100320001749012008F0B4FF011E20D089230835A9
:100330001B010460C55020000DF098FD20001149FC
:100340000DF09EFD200010490DF094FD0A222000C2
:100350000E490DF0A9FD20000D490DF097FD00207C
:1003600070BD0C4809F032F906204042F8E70A480F
:1003700009F02CF901204042F2E7C046CCCB011035
:10038000940800007D040010E90800109D0300108F
:1003900011040010B8CB0110E0CB011070B50600BD
:1003A00019480C00002509F011F9002C1ED000217D
:1003B00020000DF05BFD0022002120000DF074FDF7
:1003C000002120000DF05CFD002120000DF052FD09
:1003D000002120000DF05AFD20000EF02BFA051E22
:1003E00006D1002E02D0300008F076FF280070BD44
:1003F0000D250100054809F09FF920000DF07AFE57
:100400006D42002EEFD1F1E704CC011018CC0110A1
:100410000B0070B504000D3300D170BD154809F014
:100420008BF92568002DF8D0002128000DF01EFD65
:100430000022002128000DF037FD002128000DF0DA
:100440001FFD002128000DF015FD002128000DF0F2
:100450001DFD28000EF0EEF9011E03D1200008F06A
:100460003BFFDAE7044809F067F928000DF042FE87
:10047000F4E7C04638CC011018CC011070B5050067
:100480000E0020481100140009F056F96B681E4A4E
:100490009C461E4BAA58EB5864449B186C609C42C7
:1004A00002DA0024200070BD194809F08FF8002EF0
:1004B000F7D0002130000DF0D9FC002200213000DF
:1004C0000DF0F2FC002130000DF0DAFC00213000CC
:1004D0000DF0D0FC002130000DF0D8FC30000EF003
:1004E000A9F9041E03D1280008F0F6FEDAE70D246E
:1004F0000100084809F020F930000DF0FBFD6442CE
:10050000F1E7C04650CC01108C08000088080000BC
:1005100064CC011018CC0110F0B5DE4657464E46AB
:100520004546E0B5C74C0126A54414000590C648D1
:1005300009F002F9C54809F049F8C54F2100380013
:1005400009F0FAF8764206AAC2492000069617F08A
:10055000B9FC05000699C04809F0EEF82900BF482B
:1005600009F0EAF8BE492000079617F00FFF07AA26
:10057000BC4917F0A7FC0600BB4809F027F807990B
:10058000BA4809F0D9F82100380009F0D5F800235D
:100590001C22002109A8089308F0AAFE08AB0493C6
:1005A000012D00D120E1B24809F0C6F8F82200235D
:1005B0000021520021A8209308F09AFE20AB994612
:1005C000AC4BD02601249846AB4DAC4F36062A687A
:1005D00073680092D340DB0700D4F1E023003A00B7
:1005E000402110A808F05AF90134484610A917F024
:1005F00093FC0435042CEAD1F82200230021520098
:100600009EA89D9308F074FE9DAB9A469C4BD02605
:10061000012498469B4D9C4F36062A6873680092C9
:10062000D340DB0700D4C8E023003A00402110A8E3
:1006300008F034F90134504610A917F06DFC043568
:10064000042CEAD1002000F04FFC3822002800D111
:10065000C5E08E4910A808F051FE10A9484617F0D1
:100660005BFC0023FFAAD3666C32F822FFA80021AE
:100670005200703008F03CFEFFAB6C33844C98465F
:10068000844B2600D0259B46834F10362D066B6881
:100690002268D340DB0700D48CE001233A004021DC
:1006A00010A808F0FBF80434404610A917F034FCF9
:1006B000A642ECD102A98C460023784ACB206244A2
:1006C0001360F822C00060440021520008F010FEC0
:1006D00002AB9C46724B01259B46704F714E724C8B
:1006E000674433681A2B00D171E01B2B6BD01C2B95
:1006F0006FD1802322689B015340E022D201134036
:100700006A4A136004225B461A60FC322368134273
:10071000FCD0606804360004000C08F04BFD64490E
:1007200008F041FD08F068FD2B0000900191614A3E
:10073000402110A808F0B2F8380017F07BFC013512
:10074000381810A917F06EFC042DCAD102A98C46E6
:100750000023594A5948624413600021584A6044B2
:1007600008F0C6FD4B460393534602ACA4460293E1
:10077000FA21434650480193524A049B0097C9000E
:10078000604408F08BF8A44680214B4B05986344E5
:100790001A000901883008F081F804004A4808F07E
:1007A00015FF2000494B9D44F0BCBB46B246A9460C
:1007B000A046F0BD01235A4671E72300424635E7C3
:1007C000230042460CE7802322685B0194E72368FC
:1007D00093E71D2B96D1C02322689B018CE73C49EF
:1007E00010A808F08BFD38E7012E00D0DBE6394871
:1007F00008F0ECFE0699202917DCD023079A8E40DA
:100800001B06002A1BD05E61334808F095FF079A4B
:10081000069B002A11D1314A08A9049100920800D0
:100820002F4A202108F03AF8BDE6079900204B1E18
:100830009941C9B200F04EFBE9E72A4AECE79E6114
:10084000E2E7C046DCEFFFFF78CC01108CCC011052
:10085000A0CC0110B0CC0110B8CC0110C4CC011058
:10086000D4CC0110DCCC0110E8CC0110F8CC011084
:1008700058CD0110A8CD01109404002068CD0110BE
:1008800028CE0110A0040020E8CD011068CE011090
:1008900084040020F0CE0110D8CE011054060000D0
:1008A00000E004407804002000C0044000D0044070
:1008B0000000343C04CF0110480800004C08000040
:1008C000CC07000030CF01101CD001102410000014
:1008D000A0CE011004CD011018CD011074CC011070
:1008E00038CD011070CC0110F0B54E464546DE46BD
:1008F0005746E0B5140005000E001A0083B0002C26
:1009000000D1A9E02189002900D184E0954808F0B0
:1009100013FF082398462389A8441A1C7F2B00D96B
:100920007F2200234146200092B20CF0C3FC2B7AB8
:10093000472B6CD143465B78452B68D14346542204
:100940009B78D11A89469A4261D10C239B46AB44CD
:100950003F21584617F006FB071E0DD00378002BE9
:1009600000D177E02021584617F0FCFA4B463B7047
:100970000137002800D003707B4808F027FE882349
:100980009A46AA4453463A0059462800FFF7C4FD48
:10099000814608F051FEFA20800005F0E3FD3A00A0
:1009A0005946724808F0C8FE4B46714F4946EB5114
:1009B000704808F0C1FEFA20800005F0D3FD8023C6
:1009C000E9591B01994200D36CE000292FD0C823BC
:1009D000009140468021684A07F060FF674BE8506D
:1009E000002382B2414630006B600FF0A7FD071E66
:1009F00000D0B0E05E4BEA58002A08D000235146F0
:100A0000300092B20FF09AFD071E00D079E030005E
:100A100021890CF097FF20000CF000FB0027380024
:100A200003B0F0BCBB46B246A946A046F0BD892340
:100A30001B01E85816F02CFC80210300504A404668
:100A400007F02CFF4D4F4146E8514E4808F074FE28
:100A5000E859C5E700278FE74B4808F0B7FD0027A6
:100A6000002EDCD0002130000DF000FA0022002121
:100A700030000DF019FA002130000DF001FA0021CC
:100A800030000DF0F7F9002130000DF0FFF93000D3
:100A90000DF0D0FE071E2AD1002DC0D0280008F08E
:100AA0001BFCBCE7394808F047FE002E1CD0002193
:100AB00030000DF0DBF90022002130000DF0F4F9D8
:100AC000002130000DF0DCF9002130000DF0D2F9EA
:100AD000002130000DF0DAF930000DF0ABFE011E00
:100AE00030D10F277F42D9E70F277F4297E70D27A5
:100AF0000100274808F020FE30000DF0FBFA7F428D
:100B0000CAE70100234808F017FE002E00D186E74F
:100B1000002130000DF0AAF90022002130000DF074
:100B2000C3F9002130000DF0ABF9002130000DF0C9
:100B3000A1F9002130000DF0A9F930000DF07AFE86
:100B4000011EABD00D27124808F0F6FD30000DF065
:100B5000D1FA7F42A2E701000F4808F0EDFD002E18
:100B6000D6D15CE744D0011060D001107CD00110D8
:100B70008C0800008CD00110B4D00110880800004F
:100B800014D1011040D1011030D0011098D00110C3
:100B900018CC011074D1011054D10110F8B5CE4613
:100BA000474680B508F0D4FD624805F0DBFC0C2117
:100BB000012008F06DFB041E00D1B5E000F0D8F96B
:100BC000002800D08DE05C4808F000FD00F0DEF861
:100BD0005A4B5B4A5B495C4800F0E6F8061E77D149
:100BE0005A4808F0F3FC5A4B1868043016F050FBD2
:100BF0000100584808F0A0FD5021574808F09CFD1E
:100C00002E200DF06BFB051E00D182E0502231003A
:100C10000CF0A2FD002800D073E0012128000CF0A8
:100C200021FE2060002800D177E021000DF01EF9A0
:100C30004A4920680DF030F90C23D02799460B3B28
:100C40009846474D3F06A944286804F01FFE4246D7
:100C500008CD9A407A62BA614D45F5D10C23D02770
:100C600099460B3B98463F4D3F06A944286804F03F
:100C70000DFE424608CD9A407A62BA614D45F5D1E3
:100C80001023D02799460F3B9846374D3F06A9447D
:100C9000286804F0FBFD424608CD9A40BA624D45F3
:100CA000F6D116F00BFC0C239846304FB84420CFF9
:100CB0001F21280004F036FD00212800002204F046
:100CC00049FD0021280004F0CDFD4745EFD112E099
:100CD000274808F07BFC01263000C0BCB946B0466E
:100CE000F8BD244808F072FC0126F5E700F07EF913
:100CF000012005F037FC2379002BF7D000F05CF9D8
:100D0000EAE71D4808F018FD1C4808F05FFC0126C2
:100D1000E2E71B4808F05AFCF6E71A4808F056FCD0
:100D200028000DF087FDEFE7174808F04FFC01267B
:100D3000D2E7C04610270000C8D10110307500006E
:100D400004004000E0D10110F0D1011018D20110D0
:100D50006CC5002024D201103CD201100D030010FC
:100D600094040020A00400208404002078040020C3
:100D700004D20110B0D1011070D20110A0D2011024
:100D800058D201108CD2011094D1011010B5044B2F
:100D9000012200211B68034804F036FA10BDC0464A
:100DA000AC04002070180020F0B5DE4657464546DA
:100DB0004E46E0B585B01C0093468246884605F055
:100DC000BFFCFA2206000F00200000230021920041
:100DD00008F0B2F98019794104000D008F4243D820
:100DE00040D04346002B45D0504617F023F906006B
:100DF000404617F01FF90300234A310091460022B4
:100E0000039202925A460192424648460092524646
:100E100004F07CFB8246002817D1A8461B4F002116
:100E2000484603F071FF060000F0E0F820002900BA
:100E300005F0B4FB7B6A98450FD8BA6AA24201D28A
:100E400098450AD001235B429A46504605B0F0BC53
:100E5000BB46B246A946A046F0BD002E11DB032ECC
:100E6000DDD1F2E78642BCD9434601246442E5174E
:100E7000002BB9D1504617F0DDF8002306009B4641
:100E8000BAE7B246E1E7C0467018002000400540CE
:100E900010B582B068460C0000F0ECF86B460622F4
:100EA000991C200008F02AFA012223789343022299
:100EB0001343237002B010BD044B10B59C460800CC
:100EC00003490622614408F019FA10BD88090000A0
:100ED0007018002010B50A000100024804F08EFBD3
:100EE00010BDC0467018002000B583B000236A46CC
:100EF0000100D3710348073204F0CAFB6B46D8796E
:100F000003B000BD7018002070B5D02636063368D7
:100F100030245A1E93410F4A022594465B422340D7
:100F20006344DB6A1D4200D170BD002202211820FB
:100F300004F03CFC33685A1E93415B421C40064B54
:100F400001229C46C02364449B011C43034B256043
:100F50001A70E9E7004101401C41014034C70020FC
:100F600010B501220221182004F020FC10BDC0465B
:100F700010B50E4803F040FF0D4C2378002B10D025
:100F8000802040220B49800104F03AFC012202211A
:100F9000182004F00BFC01210D2004F095FC00202A
:100FA00010BD0BF025F901232370E9E7701800202C
:100FB00036C70020090F001010B5002202211820AA
:100FC00004F0F4FB80200449800104F03BFC03485A
:100FD00003F048FF10BDC046090F00107018002034
:100FE0000122014B1A70704734C7002070B582B0DF
:100FF00010F062FC174C2368002B04D0164D2A68B1
:10100000002A02D1984702B070BD05F099FB134E3B
:10101000009001913268736800980199801A994193
:10102000020000290DDD2B68591E2960002902D11C
:1010300001200B490870009A019B3260736023689D
:10104000E0E70029FBD1FA2189008A42EBD8236826
:10105000D8E7C046681800206C18002070100020E7
:1010600034C7002010B5024800F0E0F810BDC046BB
:101070009CC5002010B50822014908F03FF910BDB9
:101080009CC5002030B54B1E012900D1A7E0664A5F
:1010900011780D112C0030349F2900D9A2E0047082
:1010A000012B00D1BEE00F21147821400C00303418
:1010B000092900DD98E04470022B00D1B2E0547899
:1010C0002511290030319F2C00D990E08170032B2D
:1010D00000D1A7E00F2121400C003034092900DDA8
:1010E00087E0C470042B00D19CE09478251129007E
:1010F00030319F2C00D97FE00171052B00D191E0A8
:101100000F2121400C003034092900DD76E04471C4
:10111000062B00D186E0D4782511290030319F2C90
:1011200000D96EE08171072B00D17BE00F212140B7
:101130000C003034092966DCC471082B00D171E041
:1011400014792511290030319F2C5FD80172092BA9
:1011500068D00F2121400C003034092958DC44723A
:101160000A2B5FD054792511290030319F2C52D899
:1011700081720B2B56D00F2121400C0030340929ED
:101180004BDCC4720C2B4DD09479251129003031E1
:101190009F2C00D9073101730D2B43D00F21214023
:1011A0000C003034092901DD37310C0044730E2B5B
:1011B00038D0D1790C11220030329F2900D9073262
:1011C00082730F2B2ED00F220A4011003731092ACB
:1011D00001DC30321100C173102B23D010300023FA
:1011E000037030BD07345AE737310C0063E707312D
:1011F0006CE737310C0074E707317DE737310C00BD
:1012000085E707318EE737310C0095E707319DE719
:1012100037310C00A3E70731AAE737310C00C4725D
:101220000C2BB1D1C018DAE79CC5002030B50025E1
:1012300089B004000922002101A8009508F058F89F
:101240000922002105A8049508F052F84B236A46AC
:101250006846137004A90D221BF066FC15210822B4
:101260002000694408F04AF809B030BDEFF310805F
:1012700072B6034A1368002BFCD0BFF35F8F704730
:101280002C0100D0BFF35F8F0022024B1A6080F365
:10129000108870472C0100D070B5EFF3108C72B637
:1012A0000D4D2B68002BFCD0BFF35F8F0724CB08BC
:1012B000C618C05C01230C40A3401C00044003423C
:1012C00007D103433370BFF35F8F2C608CF310881A
:1012D00070BD100005F0CEFD2C0100D0F8B54746DA
:1012E000CE46884680B5EFF3108C72B6214D2C683F
:1012F000002CFCD0BFF35F8F9A422CD8D40807276C
:10130000055D061901241740BC402C421FD007215F
:101310000127894609E0D408055D06194C463900C5
:101320001440A1400C00294211D001329342F2D264
:1013300001204042BFF35F8F00220E4B1A608CF3F6
:10134000108800280FDBC0BCB946B046F8BD2C435E
:1013500010003470EEE7BFF35F8F00232B608CF337
:101360001088012040424346002BECD0089805F03D
:1013700081FDC0462C0100D030B5EFF3108C72B661
:101380000A4C2368002BFCD0BFF35F8F0723012298
:10139000CD0819408A40435D93434355BFF35F8FA7
:1013A000002323608CF3108830BDC0462C0100D090
:1013B000024B18688007C00F7047C04600C0064047
:1013C0000021044B044ABFF35F8F02C39342FAD15A
:1013D0007047C046000100D0800100D0044A107858
:1013E000431CDBB2172B00D9102313707047C04683
:1013F000B004002000B5054B83B001000093182213
:101400001F230348FFF76AFF03B000BDB8D20110E5
:1014100038180020142310B50100188804331B88E5
:10142000984710BD162310B50100188802331B8899
:10143000984710BDF8B54746CE4680B50F1E19D067
:1014400014239946043304000025012698464B4690
:101450001888434621681B88984701C4431E984159
:10146000013540420640AF42F1D13000C0BCB94620
:10147000B046F8BD0126F8E710B5052005F076FE68
:10148000030C64200349584307F09AFA0338FDD24D
:1014900010BDC0469A3B0000F0B54646D6464F46C2
:1014A000C0B5664E050082B0310065480AF050FDB7
:1014B000002809D1310063480AF04AFD002800D114
:1014C000B4E006225F4801E007225D488427FF233D
:1014D0005D4C3F010021EC5120602372E3712271C9
:1014E0000AF018FD40B2A071002800DAA1E0310036
:1014F00020680AF061FD40B2421D60711203C00114
:1015000010433023514AC8270240924601225048D6
:10151000BC46016880278B434E49BF020B600368BD
:101520001000984308602068802301009B01383137
:101530000B438021490419600621B8466156914643
:101540004B005B18DB00C3189C44674642463A6078
:10155000CC2294469C446246574617601A00C02726
:10156000D032BF0217603C4ADC331A604B461D2262
:1015700000930AF0E3FD1820217904F0D3F81D2030
:10158000217904F0CFF801220021182004F0E2F8BC
:101590000121182004F0F6F80622A256002053007C
:1015A0009B182268DB0094462C4A6344D8331A60A7
:1015B0000AF00EFEE07100200AF00AFEE27943B262
:1015C00023727F2A08D80020002B05DB02B0E0BC84
:1015D000BA46B146A846F0BD84231B01EC58002C46
:1015E00024D00621615600290CDB0522A256531C8B
:1015F00005D0310020680AF043FD062161562068BD
:101600000AF078FC07202056002803DB0AF0D8FDFA
:10161000FF23E37108202056002803DB0AF0D0FDE9
:10162000FF232372842300221B01EA50062040423C
:10163000CCE7EC59002CD4D1F8E7C046F0D2011029
:1016400000003050000020502C180020FFFFFF9FAA
:1016500078C0014078D0014018771C2401E00000D8
:1016600084231B0170B5C4580500002C1CD0062132
:10167000615600290CDB0522A256531C05D01249E5
:1016800020680AF0FDFC0621615620680AF032FC51
:101690000720205600280DDA08202056002804DAFA
:1016A000842300221B01EA5070BD0AF089FDFF234C
:1016B0002372F5E70AF084FDFF230820E37120562A
:1016C0000028EDDBF1E7C046F0D20110F0B5574637
:1016D0004E464546DE46E0B58A469046994685B078
:1016E000002900D1A8E084231B01C5588022D02303
:1016F00092041B069A611820297904F013F84B46CE
:10170000002B00D0A9E001240621220069560527FC
:101710008A4028680368934303604B005B18DB0032
:10172000C618CC36EF573268029394467A1C1203DF
:101730000392C64AFF01934662465B461A40130075
:10174000039A1A433A4332608022029B5201D033FB
:10175000C3181343802212061A601A6080235B04A8
:101760001A000AF0A7FC06222600AA562968131DB3
:101770009E4033000868260003430B6013000833C3
:101780009E4033000868072603430B6043469000E1
:10179000DB000818013B036153009B18DB00AC4AD7
:1017A000CB18D8331A604A460261AA4A1A601F222F
:1017B000687902401A60AE57A022B440A64BD20509
:1017C000D4508022A54BB701FC185204236818009E
:1017D00010401342FAD1A24BF602994201D0802068
:1017E000C002A04B0C001E4043469A08A023DB0514
:1017F0009C465346674410343B607C60BA6080224C
:101800003043994E52043043F86001208A600B68DF
:1018100003430B608B681342FCD0062101226956FA
:1018200028688A40036893430360002318220093CA
:1018300001330AF083FCE9E04B46002B00D101E1C3
:1018400084231B01C5588022D02392041B069A6171
:101850001820297903F066FFCA46012406212200D8
:10186000695605278A4028680368934303604B0044
:101870005B18DB00C618CC36EF57326802939446EB
:101880007A1D12030392714AFF01934662465B463A
:101890001A401300039A1A433A4332608022029B93
:1018A0005201D033C3181343802212061A601A6003
:1018B00080235B041A000AF0FDFB06232100EB568F
:1018C0002E689C46043399400B0032682100134374
:1018D00033606346083399400B0032684046134337
:1018E0003360624643469200DB00B218013B13614D
:1018F00063465B006344DB005549F318D833196035
:101900000E99A027091AC90001391161514AFF0532
:101910001A601F2269790A401A600723EB561A00E1
:101920009C404D4B9101FC5014008022A3464B4B30
:101930005204C81803681342FCD1584608220123F8
:101940000290AA56444893403B50930118008346A6
:1019500003930298414B80245B44834664041868D7
:10196000070027402042FAD15B463D48DB02864211
:1019700065D08027C024FF02E4023A48D202034027
:101980001F43394B02401F4343469B080293A02349
:10199000DB059B46534659440B6010239A46B244DC
:1019A000534630004B60029B22438B60CF602F492F
:1019B00020300A430E998908CB1A039959440860CC
:1019C0004846404448608B60CA60012361468B40B2
:1019D0003268134333600722254B80219C46AA5668
:1019E00049049201624413680B42FCD10822204B47
:1019F00080219C46AA5649049201624413680B4216
:101A0000FCD100214246484607F072FC0621695687
:101A10002B684A005218D2009B18164AD8331A6015
:101A2000D02380221B0692045A61FFF725FD002077
:101A300005B0F0BCBB46B246A946A046F0BD802426
:101A4000A4029AE705204042F2E7C0467F00FEFF6D
:101A50002060000040600000440400000C000050C2
:101A600000002050FD7F00FF1900400029004000C9
:101A70001000005003A0000010B5172003F006FF6F
:101A8000D024802324061B04002201216362172036
:101A900003F060FE182003F0F9FE80235B0463620C
:101AA0001920A36103F0F2FE80239B04636263614B
:101AB00010BDC04670B5D024802524062D04A56134
:101AC000142004F04FFD6561FA2004F04BFD18204E
:101AD00003F0DCFE80235B04A36270BD002300B52D
:101AE00085B003930A4BD2021A40082309070A4320
:101AF00008490093114302AB49BA04220291002124
:101B0000FFF7E4FD002801D1039840BA05B000BDFD
:101B100000F8FF0F0400004010B586B0012916D070
:101B2000154BD2021A40082309070A43134903AC94
:101B30000A4303920093042223000021FFF7C6FD0D
:101B40000123002801D19B00E05806B010BD0A4BCC
:101B5000D2021A400A4B03AC1A430C23039200939F
:101B6000042223000021FFF7B1FD0028EDD102235C
:101B70009B00E058E9E7C04600F8FF0F0400004072
:101B80000800005010B586B0012916D0154BD202BE
:101B90001A40082309070A43134903AC0A43039276
:101BA0000093042223000021FFF790FD0123002869
:101BB00001D19B00E05806B010BD0A4BD2021A407A
:101BC0000A4B03AC1A430C23039200930422230014
:101BD0000021FFF77BFD0028EDD102239B00E05898
:101BE000E9E7C04600F8FF0F020000400600005081
:101BF00010B586B0012916D0154BD2021A40082321
:101C000009070A43134903AC0A43039200930422D1
:101C100023000021FFF75AFD0123002801D19B007A
:101C2000E05806B010BD0A4BD2021A400A4B03AC72
:101C30001A430C2303920093042223000021FFF790
:101C400045FD0028EDD102239B00E058E9E7C0469E
:101C500000F8FF0F0100004005000050F0B55BBA2E
:101C6000D6464F464646C0B584B003938423614CA4
:101C7000D202224009070A435F491B01C45811439D
:101C8000D02349BA802201261B06920402919A6150
:101C90001820217903F046FD062132006156CC2739
:101CA0008A402068BC460368544F93430360052371
:101CB000E35602AD98464B005B18DB00C218944413
:101CC00062461268D0339146424601321203924670
:101CD0004A46174052463A434746FF013A43674651
:101CE0003A608022C31852011343802212061A6000
:101CF0001A6080235B041A000AF0DCF90621370021
:101D0000615622680B1D9F403B001068370003435B
:101D100013600B0008339F403B0010680727034304
:101D200013603F238800101803614B005B18DB0031
:101D30003349D318D8331960002101613149196042
:101D40001F21607901401960E757A021BE402E4B4A
:101D5000C905CE50BB019C4680212C4E49046644E7
:101D60003368180008400B42FAD1294BFF029A420F
:101D700001D08020C002274B11001F40A023DB05AB
:101D8000634410311D6059600221996080213843FD
:101D9000214F49043843D860012091601368034300
:101DA000136093680B42FCD0062101226156206823
:101DB0008A40036893430360002318220093013391
:101DC0000AF0BCF90621615623684A005218D20075
:101DD0009B18124AD8331A60D02380221B06920423
:101DE0005A61FFF749FB002004B0E0BCBA46B14697
:101DF000A846F0BD00F8FF0F040000C07F00FEFF02
:101E00002060000040600000440400000C0000500E
:101E100000002050FD7F00FF1900400003A00000DB
:101E2000F0B5D6464F464646C0B5694CD202224070
:101E30000C072243674C84B0224302AD02926B60D0
:101E400001290AD108246449445064494250644A33
:101E50008350852382681B01C25084231B01C45810
:101E60008022D02301261B0692049A611820217932
:101E700003F058FC062132006156CC278A402068C6
:101E8000BC460368574F934303600523E3569846C7
:101E90004B005B18DB00C218944462461268D033D2
:101EA000914642460132120392464A461740524634
:101EB0003A434746FF013A4367463A608022C318D7
:101EC00052011343802212061A601A6080235B04B9
:101ED0001A000AF0EFF806213700615622680B1D40
:101EE0009F403B0010683700034313600B0008332A
:101EF0009F403B0010680727034313603F2388007F
:101F0000101803614B005B18DB003749D318D83336
:101F1000196000210161354919601F216079014074
:101F20001960E757A021BE40314BC905CE50BB0117
:101F30009C4680212F4E49046644336818000840AF
:101F40000B42FAD12C4BFF029A4201D08020C002F2
:101F50002A4B11001F40A023DB05634410311D6094
:101F600059600221996080213843254F4904384344
:101F7000D8600120916013680343136093680B429B
:101F8000FCD006210122615620688A4003689343F1
:101F9000036000231822009301330AF0CFF80621D2
:101FA000615623684A005218D2009B18154AD8334C
:101FB0001A60D02380221B0692045A61FFF75CFA54
:101FC000002004B0E0BCBA46B146A846F0BDC04609
:101FD00000F8FF0F040000C04C0800004408000097
:101FE000480800007F00FEFF206000004060000005
:101FF000440400000C00005000002050FD7F00FF52
:102000001900400003A00000F0B5D6464F464646F2
:10201000C0B5694CD20222400C072243674C84B001
:10202000224302AD02926B6001290AD1082464495F
:10203000445064494250644A8350852382681B019E
:10204000C25084231B01C4588022D02301261B06C2
:1020500092049A611820217903F064FB0621320072
:102060006156CC278A402068BC460368574F93438B
:1020700003600523E35698464B005B18DB00C2184B
:10208000944462461268D0339146424601321203AC
:1020900092464A46174052463A434746FF013A4362
:1020A00067463A608022C318520113438022120609
:1020B0001A601A6080235B041A0009F0FBFF0621F6
:1020C0003700615622680B1D9F403B0010683700A7
:1020D000034313600B0008339F403B001068072741
:1020E000034313603F238800101803614B005B1803
:1020F000DB003749D318D833196000210161354915
:1021000019601F21607901401960E757A021BE4086
:10211000314BC905CE50BB019C4680212F4E49044E
:1021200066443368180008400B42FAD12C4BFF027A
:102130009A4201D08020C0022A4B11001F40A023E8
:10214000DB05634410311D605960022199608021D4
:102150003843254F49043843D86001209160136803
:102160000343136093680B42FCD0062101226156A1
:1021700020688A4003689343036000231822009379
:10218000013309F0DBFF0621615623684A0052182B
:10219000D2009B18154AD8331A60D02380221B0620
:1021A00092045A61FFF768F9002004B0E0BCBA4617
:1021B000B146A846F0BDC04600F8FF0F020000C0BF
:1021C0004C08000044080000480800007F00FEFFA3
:1021D0002060000040600000440400000C0000503B
:1021E00000002050FD7F00FF1900400003A0000008
:1021F000F0B5D6464F464646C0B5694CD20222409D
:102200000C072243674C84B0224302AD02926B60FC
:1022100001290AD108246449445064494250644A5F
:102220008350852382681B01C25084231B01C4583C
:102230008022D02301261B0692049A61182021795E
:1022400003F070FA062132006156CC278A402068DC
:10225000BC460368574F934303600523E3569846F3
:102260004B005B18DB00C218944462461268D033FE
:10227000914642460132120392464A461740524660
:102280003A434746FF013A4367463A608022C31803
:1022900052011343802212061A601A6080235B04E5
:1022A0001A0009F007FF06213700615622680B1D4E
:1022B0009F403B0010683700034313600B00083356
:1022C0009F403B0010680727034313603F238800AB
:1022D000101803614B005B18DB003749D318D83363
:1022E000196000210161354919601F2160790140A1
:1022F0001960E757A021BE40314BC905CE50BB0144
:102300009C4680212F4E49046644336818000840DB
:102310000B42FAD12C4BFF029A4201D08020C0021E
:102320002A4B11001F40A023DB05634410311D60C0
:1023300059600221996080213843254F4904384370
:10234000D8600120916013680343136093680B42C7
:10235000FCD006210122615620688A40036893431D
:102360000360002318220093013309F0E7FE0621E1
:10237000615623684A005218D2009B18154AD83378
:102380001A60D02380221B0692045A61FFF774F86A
:10239000002004B0E0BCBA46B146A846F0BDC04635
:1023A00000F8FF0F010000C04C08000044080000C6
:1023B000480800007F00FEFF206000004060000031
:1023C000440400000C00005000002050FD7F00FF7E
:1023D0001900400003A00000F0B5C64600B5040097
:1023E0001D0082B001292ED01F001823012098461D
:1023F00000261A4BD2021A4009073A430A438021A9
:102400000430C90580000A43201842600322434675
:10241000E91C914304318919009120000021E3183F
:102420000132FFF753F9061E13D12100089B1C311E
:10243000994203D02A00180006F060FF300002B075
:1024400080BCB846F0BD1F1D14230020984604260A
:10245000CFE70100024807F06FF9EFE700F8FF0F40
:10246000D4D20110F0B54E464546DE465746914659
:102470009846DA1C0323E0B59A4389B005000E00A4
:102480000392022924D02800129B1C3098423FD08E
:102490001900434636071E434B46244ADF021740C5
:1024A0003E43C0273F063E434246AE6106F026FF4C
:1024B00029000023039A2800043218310093FFF703
:1024C00005F909B0F0BCBB46B246A946A046F0BD2E
:1024D000174B20279B460823164C9A4601E0013CE7
:1024E00010D35B4605935346042200930021280035
:1024F00005ABFFF7EBF8002800D106980742EED0B5
:10250000002CC0D10C4807F061F806204042D8E703
:102510004B46DF024346054A360717401E433E43FB
:10252000C0273F063E43AE61C2E7C04600F8FF0F3A
:1025300004400040E7030000F0D40110836870B548
:10254000CC0B0500E403A3420BD063401A0E19D153
:10255000FF22120413420CD1FF221202134201D1B6
:10256000AC6070BD012128000A4A230AFFF740FE33
:10257000F6E7230C01212800074AFFF739FEAB6874
:102580006340E9E7230E0121044AFFF731FEAB68FF
:102590006340DDE70A0001000B0001000C000100B0
:1025A000F0B5C646033083089C4600B58E1E002B4E
:1025B0001DD00B0033435B0754D16346013B0A2B0C
:1025C00050D9C3089846424630000B00D2008F18FD
:1025D00030CB30C09F42FBD14346B4185F008A180D
:1025E000BC4504D0538810881B04034323600800B3
:1025F0000B888A1D5BBA73808B1C1B680A301BBA60
:102600007360126812BAB260006800BAF060452BBD
:1026100003D0300080BCB846F0BD082AF9D10B00C9
:102620000A000C00B232AE331B8810682E342569C4
:102630001A18AA4222D83A31C918081881424AD237
:102640000027002504E0DD2A1CD0C91888422CD9B7
:102650004B780233CA189042F7D30A78302AF2D165
:102660000D00F2E7634632009800301893885488D2
:102670001B04234308C28242F8D1B8E701235B421E
:10268000B360C6E78A1C90468A78002ADDD14246AC
:102690005278502AD9D142469278F22AD5D1424670
:1026A000D278012AD1D10F00CFE7002D10D0062318
:1026B0000422002F0AD0A28BD20601D50122134397
:1026C0008422B15CB1520432B354A2E71300F2E7A2
:1026D00002230022EDE70023EDE7C046F8B5CE4621
:1026E00047460500894680B5002932D001230121E3
:1026F000204AFFF77DFD0123012128001D4AFFF735
:1027000077FD032303279846012640240BE0012090
:1027100003F028FF013C330001212800154AFFF790
:1027200067FD002C10D001212800124AFFF760FA43
:102730000028ECDB3B0003404345E8D1FF28E6D00E
:10274000C0BCB946B046F8BD49460B4806F0F4FF98
:10275000F6E700230121074AFFF74AFD0023012184
:102760002800044AFFF744FD00230127984600266D
:10277000CBE7C0461F00010004D30110F0B5D646D8
:102780004F464646C0B5C37C05000F00924682B056
:10279000002B04D1006802F0A7FB002865D02800B8
:1027A00002F0A8FBAB7C002B05D101212800FFF72C
:1027B00095FF0123AB74EB7C002B64D0FA24A400BA
:1027C00002E0013C002C50D0082200212800FFF735
:1027D000A3F9431CF5D0C30545D5C02203035B0D07
:1027E000591ED200914200D3B7E0820700D5B4E071
:1027F0002C001C340022022128000094FFF7ECFD7D
:10280000002828D1AB8BEA8B002B2AD00121E97458
:1028100066498C4619005140614500D0A4E0D2437E
:1028200092B2934200D0A6E00B2B00D8A9E024225C
:10283000AA5CAA732122A95C123A0A40022A17D97B
:102840000C2B00D1A9E0012A5BD0022A36D0002A45
:1028500047D00B20404202B0E0BCBA46B146A84681
:10286000F0BD002AD2D10023EB7401204042F2E7F0
:102870002521695C8C466646697B711AC9B21429A8
:10288000DED86E73DCE7042200212800FFF77AF916
:1028900083B29846464B000499461B88040C434576
:1028A00002D0862323424DD14346002B4FD14B46C5
:1028B00042461A80A30600D580E7D6E7102B69D9D7
:1028C0002322A95C02206118CA78920004328A1877
:1028D000141B1C1B8B78DB071C4353463C601A609F
:1028E000B9E71B2B5FD92332AA5C2D8AA218518924
:1028F0008D424CD11032141B1C1B53463C601A6095
:10290000A9E7102B4CD92322AA5CA218D178890000
:1029100004315218117B141B1B1B882934D1517BA5
:102920006C2931D1D17C002928D1117D102925D1E4
:10293000517D182922D1183B3B60534618320120A3
:102940001A6088E721001B4806F0F6FEACE7042277
:1029500000212800FFF758FBA9E7012301212800E7
:10296000154AFFF745FC7EE71900144806F0E4FE1F
:10297000012040426FE7022040426CE70A204042BB
:1029800069E70320404266E70920404263E70620EA
:10299000404260E7072040425DE7042040425AE79A
:1029A0000820404257E70520404254E7FFFF00005F
:1029B00022C7002028D301100D00010054D30110BC
:1029C000F0B5DE464E46574645460400E0B587B0B2
:1029D0009B468946039202F08DFAA37C002B05D119
:1029E00001212000FFF77AFE0123A374A37B002BB3
:1029F00025D02C4E2C4FB36A98462C4B9A460DE0AE
:102A0000A17B002903D1207B637B83421BD14346FA
:102A1000ED1ABD423ED8012352461370200005AA8C
:102A200004A9B56AFFF7AAFE0128E9D1059904981F
:102A3000FFF7B6FD0100200002F062FAE0E7207B1C
:102A4000637B8342D5D05946039B08710C339AB2FD
:102A50000A80D2434A805A4649465171002259465B
:102A60008A71494602394D4269415D4649000C313F
:102A70000130E9712A816A8102212073002220003D
:102A80000095FFF7EFFC07B0F0BCBB46B246A94685
:102A9000A046F0BD637B227B054806F04DFE012079
:102AA0004042F0E70040054040420F0034C700209C
:102AB00080D30110F0B557464E464546DE46924655
:102AC0001A0099468023E0B51C3285B005000191BB
:102AD0001B019A421ED8524682624A461204038A59
:102AE000120CC2620F9A01339BB2120303820A4393
:102AF0001B041343036300234A4643630E99383093
:102B000006F0FCFB2B004A46002128001C33103243
:102B1000FFF756FF2B4B2C4A9E6A9B6A9B1B9342E6
:102B20002ED82A4B01279B46294B98460FE00228B6
:102B300036D0002803DB0100584606F0FDFD434671
:102B40001F70204B204A9B6A9B1B934218D8280079
:102B500003AA02A9FFF712FE041E2AD00128E6D11B
:102B600003990298FFF71CFD0100280002F0C8F944
:102B700043461F70134B144A9B6A9B1B9342E6D932
:102B80004B46524601240199124806F0D5FD644295
:102B9000200005B0F0BCBB46B246A946A046F0BD39
:102BA0000299039B4A0028685208C90F02F060F896
:102BB000C5E7029A4A4500D94A4603990E9819F08A
:102BC000F3FFE5E7004005403F420F00A4D30110AA
:102BD00034C70020D0D30110F0B557464E464546C5
:102BE000DE4692461A0099468023E0B51C3285B035
:102BF000050001911B019A421BD85246038A82624A
:102C000001339BB203824A461B040B430363002338
:102C10001204120CC26243634A460E99383006F021
:102C20006DFB2B004A46002128001C331032FFF7B1
:102C3000C7FE2C4B2C4A9E6A9B6A9B1B93422ED844
:102C40002A4B01279B462A4B98460FE0022836D094
:102C5000002803DB0100584606F06EFD43461F7056
:102C6000204B214A9B6A9B1B934218D8280003AA39
:102C700002A9FFF783FD041E2AD00128E6D103999B
:102C80000298FFF78DFC0100280002F039F9434655
:102C90001F70144B144A9B6A9B1B9342E6D94B4608
:102CA000524601240199134806F046FD6442200073
:102CB00005B0F0BCBB46B246A946A046F0BD02999D
:102CC000039B4A0028685208C90F01F0D1FFC5E7ED
:102CD000029A4A4500D94A4603990E9819F064FFB2
:102CE000E5E7C046004005403F420F00A4D3011075
:102CF00034C70020D0D30110F8B5CE4647460400B3
:102D00000D0080B5012900D1D4E1D04B9027984621
:102D1000FF01C02641462000FFF710FC3A000121C8
:102D20002000FEF765FFA3687605B34210D073401C
:102D30001A0E00D0DBE0FF221204134200D0E3E0C1
:102D4000FF221202134200D0EEE0C0235B05A36015
:102D500041462000FFF7F2FB3A0001212000FEF778
:102D600047FFC022A368520506009146934210D047
:102D700053401A0E00D093E1FF221204134200D0F8
:102D800082E1FF221202134200D075E1C0235B05ED
:102D9000A360F30700D495E1012D00D18FE1AC4D84
:102DA000AC4E31002000FFF7C9FB03232A000121AC
:102DB0002000FFF71DFAC022A368520591469342F6
:102DC00010D053401A0E00D04CE1FF2212041342DF
:102DD00000D02EE1FF221202134200D021E1C023D5
:102DE0005B05A36031002000FFF7A8FB2A0001214A
:102DF0002000FEF7FDFEC022A368520591469342D3
:102E000010D053401A0E00D001E1FF2212041342E9
:102E100000D0F0E0FF221202134200D0E3E0C02312
:102E20005B05A36041462000FFF788FB3A00C027FE
:102E3000002301212000FFF7DBF9A3687F05BB42D7
:102E400010D07B401A0E00D0C4E0FF2212041342BF
:102E500000D0B3E0FF221202134200D0A6E0C0234C
:102E60005B05A360C027012003F07CFB310020003C
:102E7000FFF764FB01232A0001212000FFF7B8F9C6
:102E8000A3687F05BB420FD07B401A0E00D084E0C0
:102E9000FF221204134200D073E0FF2212021342F9
:102EA00067D1C0235B05A36031002000FFF746FB1C
:102EB0002A00C02501212000FEF79AFEA3686D05B7
:102EC000AB420DD06B401A0E4AD1FF2212041342BE
:102ED0003AD1FF22120213422ED1C0235B05A36018
:102EE000012003F03FFBC0BCB946B046F8BD182333
:102EF000594A01212000FFF77BF9FF22A368120441
:102F00007340134200D11BE7C023544A5B010121E7
:102F10002000FFF76DF9C023A2685B055340FF2234
:102F20001202134200D110E7C023012120004C4AB5
:102F30005B03FFF75DF908E7C02301212000484A41
:102F40005B03FFF755F9C8E7C023444A5B01012141
:102F50002000FFF74DF9C023A2685B055340B8E796
:102F60001823012120003C4AFFF742F9A3686B4077
:102F7000ABE7C02301212000394A5B03FFF738F992
:102F80008FE7C023354A5B0101212000FFF730F9AC
:102F9000C023A2685B0553407FE71823012120006E
:102FA0002D4AFFF725F9A3687B4071E7C023012173
:102FB00020002B4A5B03FFF71BF950E7C023274A89
:102FC0005B0101212000FFF713F9C023A2685B0514
:102FD00053403FE71823012120001F4AFFF708F95B
:102FE000A3687B4031E7C023012120001C4A5B031A
:102FF000FFF7FEF813E7C023184A5B010121200008
:10300000FFF7F6F8C023A2685B05534002E71823D8
:10301000114A01212000FFF7EBF84B46A26853400C
:10302000F3E6C023012120000D4A5B03FFF7E0F81F
:10303000D5E6C023094A5B0101212000FFF7D8F83B
:10304000C023A2685B055340C4E6C0460048101880
:1030500008440000084410180C0001000B00010097
:103060000A0001001823194A01212000FFF7C0F8C7
:103070004B46A2685340A8E6C02301212000144A11
:103080005B03FFF7B5F881E6C023124A5B0101211B
:103090002000FFF7ADF8C023A2685B05534070E63F
:1030A00018230A4A01212000FFF7A2F84B46A26824
:1030B000534061E6E027084BBF01984629E6074DDB
:1030C000074E6EE6074806F081FA65E60C0001003F
:1030D0000A0001000B00010000381018083400003D
:1030E00008341018FCD301108022520082818422FF
:1030F0000023120101608360837303618350704772
:1031000010B5FEF7ADFA10BD70B5140004AA260084
:1031100005001800137880221236120196421FD83B
:103120002A222026AE542A0000262A325670917098
:10313000D670002B0DD10100280022002E3006F0A1
:10314000DDF82B00022128001C33A21DFFF738FCFC
:1031500070BD29000023A2B22E310AF0ABF8F0E7CF
:1031600005204042F4E7C04630B50400174D83B057
:103170006946200001AAFFF701FB0100431C10D0A3
:10318000031DF5D0012817D002280CD0280006F026
:10319000D3FA6946200001AAFFF7F0FA0100431CA8
:1031A000EED103B030BD0099019B4A00206852085F
:1031B000C90F01F05DFDDBE701990098FFF7F0F919
:1031C0000100200001F09CFED2E7C04618D4011097
:1031D00030B50224150083B04A0849002140069CFE
:1031E000009301942B00FFF765FC03B030BDC0468F
:1031F00010B50400002909D0837C002B00D110BD3C
:10320000002300218374FFF769FAF8E701F072FEEA
:10321000A37C002BF3D101212000FFF75FFA0123EB
:10322000A374ECE7F0B54E46DE4657464546E0B59A
:10323000BE4B87B09B6A040043608946FEF72CF9B9
:10324000002812D1FEF718FC0A25FEF733FCB84E11
:10325000142200212000FEF741FCB04213D00120CF
:10326000013D03F07FF9002DF2D1B24806F0AEF92E
:1032700006235B429846404607B0F0BCBB46B246C8
:10328000A946A046F0BD002200212000AA4BFEF76F
:10329000E5FC0028E9D1002200212000FEF73CFCDB
:1032A00004231D2200212000FEF7A2FF0028DCD10C
:1032B0009923042200212000FEF79AFF0028D4D190
:1032C000BE23062200212000FEF79EFE8046031E3C
:1032D000CBD101212000994A0833FEF789FF0A2546
:1032E000402601212000954AFEF782FC06420CD1BF
:1032F0000120013D03F036F9002DF2D1904806F08F
:1033000065F906235B429846B5E700238B4A012105
:103310002000FEF76DFF20008A49FFF70FF9E02239
:10332000C025012120009201FEF762FCA3686D0513
:10333000AB4213D06B401A0E01D000F017FDFF22F4
:103340001204134201D000F004FDFF2212021342C6
:1033500001D000F0F5FCC0235B05A3602000794993
:10336000FFF7ECF8E022012120009201FEF740FC7B
:10337000C026A36805007605B34213D073401A0E29
:1033800001D000F0D3FCFF221204134201D000F060
:10339000C0FCFF221202134201D000F0B1FCC02396
:1033A0005B05A360EB0701D400F077FD20006649C0
:1033B000FFF7C4F89022C02501212000D201FEF7BA
:1033C00017FCA3686D05AB4213D06B401A0E01D0F9
:1033D00000F08CFCFF221204134201D000F079FCB3
:1033E000FF221202134201D000F06AFCC0235B05E9
:1033F000A36020005449FFF7A1F89022012120008A
:10340000D201FEF7F5FBC026A36805007605B3429E
:1034100013D073401A0E01D000F048FCFF221204B2
:10342000134201D000F035FCFF221202134201D0FA
:1034300000F026FCC0235B05A360EB0701D400F07D
:1034400036FDC02502212000FFF756FCA3686D055C
:10345000AB4212D06B401A0E01D000F007FCFF22E5
:103460001204134201D000F0F4FBFF2212021342B7
:1034700000D0E5E3C0235B05A360C0250323012141
:103480002000324AFEF7CCFCA3686D05AB4210D099
:103490006B401A0E00D0CAE3FF221204134200D080
:1034A000B9E3FF221202134200D0ACE3C0235B0554
:1034B000A360C025002301212000254AFEF7B0FCAF
:1034C000A3686D05AB4210D06B401A0E00D091E39B
:1034D000FF221204134200D080E3FF2212021342A3
:1034E00000D056E3C0235B05A3601A4B1A499B46E4
:1034F0001A4B1B4A59444E785B449A5C3602164379
:10350000FA225200964201DB00F0CCFC154A9B5C8B
:10351000002B01D000F0C6FC502E01DC00F0C2FCF4
:10352000114B124F50259A465F4426E0004005405B
:10353000ADBEEDFE3CD40110B30402000E0001004C
:10354000A4D40110003810180048101810C0000052
:1035500044C0000004F60110AC6B03009E68030039
:103560000E0300000D0300005CD40110AB6B0300E0
:103570000135AE4201DC00F095FC09225146781B72
:1035800014F086FD0028F3D140235B425B44002702
:103590009A463D00A368EE0B4037F6039E420ED0DC
:1035A00073401A0E00D026E2FF221204134200D00C
:1035B0002EE2FF221202134200D015E2A66053460B
:1035C0006A04DB190093012140232000520CFEF70E
:1035D00049FF002803D1DB239B029F42D9D1C0239E
:1035E0009B0000269A46794F794D0DE0FEF7A6FF25
:1035F0006A04002301212000520C0097FEF732FFDD
:10360000002814D140354037403629002000564567
:10361000ECD8FEF793FF6A04402301212000520CEE
:103620000097FEF71FFF002801D15645EAD1F0258B
:10363000A368ED02AB4210D06B401A0E00D09FE29F
:10364000FF221204134200D08FE2FF221202134223
:1036500000D082E2F023DB02A360C0255D4B012194
:1036600020005D4AFEF7DCFBA3686D05AB4210D07D
:103670006B401A0E00D067E2FF221204134200D002
:1036800056E2FF221202134200D049E2C0235B053A
:10369000A36001212000FFF72FFB20004F49FEF718
:1036A0004DFF012120004E4AFEF7A2FAC026A36872
:1036B00005007605B34210D073401A0E00D026E202
:1036C000FF221204134200D015E2FF22120213421D
:1036D00000D008E2C0235B05A36003202840012836
:1036E00002D0404805F072FF20003F49FEF726FF58
:1036F000E022012120009201FEF77AFAC026A36899
:1037000005007605B34210D073401A0E00D0E1E1F7
:10371000FF221204134200D0D0E1FF221202134212
:1037200000D0C3E1C0235B05A360EB0700D5B9E17E
:10373000FA258026AD0006E00120013D02F012FFCF
:10374000002D00D16AE301212000284AFEF750FA3B
:103750000642F1D0C025A3686D05AB4210D06B4086
:103760001A0E00D051E3FF221204134200D040E3AE
:10377000FF221202134200D033E3C0235B05A36093
:10378000C025F02301212000194AFEF749FBA36858
:103790006D05AB4210D06B401A0E00D018E3FF222B
:1037A0001204134200D007E3FF221202134200D09A
:1037B000FAE2C0235B05A360FA2520230121200043
:1037C0000C4AFEF715FD2026AD001CE0B8D601100E
:1037D000FCFC0700C0003FFFFCFF0000083410188D
:1037E0000834000090D40110003810180E000100B9
:1037F00024A00000080001000120013D02F0B2FEFB
:10380000002D00D112E3082200212000FEF784F9E8
:103810000642F1D00121E34A2000FEF7E9F9C3B2E4
:10382000022001210343DF4A2000FEF7E1FC0823C8
:10383000F02200212000FEF7DBFC02230121DA4AFE
:103840002000FEF7D5FC01212000D84AFEF7D0F970
:10385000C30700D49FE20F230121D54A2000FEF7C1
:10386000C7FC00230121D24A2000FEF7C1FC012140
:10387000CF4A2000FEF7BCF9042200212000FEF709
:1038800081F9C30700D57FE2C025A3686D05AB426F
:1038900010D06B401A0E00D0FBE0FF22120413423E
:1038A00000D0EAE0FF221202134200D0DDE0C02384
:1038B0005B05A360C02501212000BE4AFEF72CF95C
:1038C000A3686D05AB4210D06B401A0E00D0C3E068
:1038D000FF221204134200D0B2E0FF221202134270
:1038E00000D0A5E0C0235B05A360200001F002FB2F
:1038F000A37C002B00D194E0AF4F25003900383570
:1039000008220831280005F0F9FCAC4BF622DB2137
:10391000236420000023920089026264A364594456
:103920004C3005F0EBFCFC2308229B000221FF3207
:1039300020000095FFF750F93900132214312800B8
:1039400005F0DCFC832213230021200000955200A7
:10395000FFF742F9A36B002B00D011E20B2298492C
:10396000280005F0CBFC002643230822E65401334F
:10397000E6540133E65401330221E654FF32373B6B
:10398000200001960095FFF795F806228D49280042
:1039900005F0B4FC3E230122E25408220133E65430
:1039A0000133E6540133E6540221373B20000196EF
:1039B0000095FF32FFF77EF84B46002B00D13DE229
:1039C000200049460622463019F0EEF80E22280063
:1039D0007D4905F093FC0822142302212000009564
:1039E000FF32FFF7F9F846E401212000774A330A55
:1039F000FEF7FEFBE2E50023754A01212000FEF7F9
:103A0000F7FBFF22A36812047340134200D1D0E5F4
:103A1000330C012120006F4AFEF7EAFBA3687340D4
:103A2000C7E501212000FEF759FE0123A37463E7D7
:103A3000C02301212000654A5B03FEF7D9FB51E753
:103A4000C023644A5B0101212000FEF7D1FBC023A3
:103A5000A2685B05534040E71823012120005C4A1F
:103A6000FEF7C6FBA3686B4032E7C02301212000AC
:103A7000564A5B03FEF7BCFB19E7C023554A5B01BE
:103A800001212000FEF7B4FBC023A2685B05534070
:103A900008E71823012120004D4AFEF7A9FBA3687F
:103AA0006B40FAE64C4805F091FD41E6C023012148
:103AB0002000464A5B03FEF79BFB33E6C023454AE2
:103AC0005B0101212000FEF793FBC023A2685B0588
:103AD000534022E61823012120003D4AFEF788FBCF
:103AE000A368734014E6C02301212000374A5B031A
:103AF000FEF77EFBEEE5C023364A5B010121200084
:103B0000FEF776FBC023A2685B055340DDE5182372
:103B1000012120002E4AFEF76BFBA3687340CFE51E
:103B2000C02301212000294A5B03FEF761FBADE5BC
:103B3000C023284A5B0101212000FEF759FBC02366
:103B4000A2685B0553409CE5182301212000204A10
:103B5000FEF74EFBA3686B408EE5F02301212000A9
:103B60001A4ADB00FEF744FB74E50723194A0121DA
:103B70002000FEF73DFBF023A268DB02534064E522
:103B8000002301212000124AFEF732FBA3686B409C
:103B900056E5C023012120000C4A5B03FEF728FBF9
:103BA000A0E4C0461E0001000E0001001F0001003D
:103BB0000F0001000885000044D601100610020025
:103BC00018D5011024D501102CD501100A000100D0
:103BD0000C0001000B00010090D40110C023B64A74
:103BE0005B0101212000FEF703FBC023A2685B05F7
:103BF000534072E4182301212000B04AFEF7F8FA7E
:103C0000A3686B4064E4C02301212000AC4A5B033D
:103C1000FEF7EEFA4AE4C023A74A5B010121200027
:103C2000FEF7E6FAC023A2685B05534039E4182387
:103C300001212000A14AFEF7DBFAA3686B402BE4C8
:103C4000C023012120009E4A5B03FEF7D1FAFFF753
:103C500011FCC023984A5B0101212000FEF7C8FA3D
:103C6000C023A2685B055340FFF7FFFB1823012127
:103C70002000924AFEF7BCFAA3686B40FFF7EFFB07
:103C8000C023012120008E4A5B03FEF7B1FAFFF743
:103C9000D1FBC023884A5B0101212000FEF7A8FA6E
:103CA000C023A2685B055340FFF7BEFB1823012128
:103CB0002000824AFEF79CFAA3687340FFF7AEFB30
:103CC000C023012120007E4A5B03FEF791FAFFF733
:103CD0008DFBC023784A5B0101212000FEF788FAA2
:103CE000C023A2685B055340FFF77AFB182301212C
:103CF0002000724AFEF77CFAA3686B40FFF76AFB6C
:103D0000C023012120006E4A5B03FEF771FAFFF722
:103D100046FBC023684A5B0101212000FEF768FAD8
:103D2000C023A2685B055340FFF733FB1823012132
:103D30002000624AFEF75CFAA3687340FFF723FB9A
:103D4000C023012120005E4A5B03FEF751FAFFF712
:103D500002FBC023584A5B0101212000FEF748FA0C
:103D6000C023A2685B055340FFF7EFFA1823012137
:103D70002000524AFEF73CFAA3686B40FFF7DFFAD7
:103D8000504805F0D9FCE9E583B204220021200067
:103D9000FEF73AF978E5C3B20120012103434A4A0C
:103DA0002000FEF725FA56E5C02301212000444AF1
:103DB0005B03FEF71DFAFCE4C0233F4A5B010121CF
:103DC0002000FEF715FAC023A2685B055340EBE420
:103DD000182301212000394AFEF70AFAA3686B4034
:103DE000DDE4C02301212000354A5B03FEF700FA21
:103DF000C3E4C023304A5B0101212000FEF7F8F93B
:103E0000C023A2685B055340B2E4182301212000BF
:103E10002A4AFEF7EDF9A3686B40A4E42B4805F0AD
:103E2000D5FB06235B429846FFF725FA284805F0A4
:103E3000CDFB06235B429846FFF71DFA6A46390020
:103E4000BB6A30310493BB8D28009382142205F0A5
:103E500055FA832214230021200000955200FEF71A
:103E6000BBFE002806D0002002A9FDF711F802AB26
:103E70009946A5E50622290002A805F03FFA029B13
:103E8000049A934203D000239846FFF7F4F96B4657
:103E90009A899B8A9A42F6D1E5E70E4805F096FB8F
:103EA000FFF784FA0C4805F091FBFFF798FB0948EF
:103EB00005F08CFBFFF7C5FA0B0001000C000100B8
:103EC0000A00010000D501101F000100D0D401102C
:103ED000E8D40110FCD3011068D40110F0B5DE461F
:103EE0004E4645465746E0B506000D009C4938361B
:103EF000040008224831300083B005F0FFF9402269
:103F00002B04E9B2A1541B0E0132A354422000221B
:103F1000225401302254280C00D00EE1FF324430EC
:103F200022540130225401302254013022544822BC
:103F3000A154914601320025A35490464A274B23B1
:103F400008220221FF32E5552000E5540096373B58
:103F5000FEF742FE322002F005FB3823E554013320
:103F6000E5540133E554013340220221E554200099
:103F7000373B0096FEF730FE0B227A49300005F001
:103F8000BDF94322A554934692460132A5544521DA
:103F9000462008220F236554FF3225544339200060
:103FA00001950096FEF786FD06226F49300005F068
:103FB000A5F93E230122E25408220133E5540133DE
:103FC000E55401330221E554FF32373B20000195CF
:103FD0000096FEF76FFD0F226449300005F08EF960
:103FE00047230822E2544B460822E5544346022167
:103FF000E554FF32363B2000E55501950096FEF76B
:1040000059FD0B225A49300005F078F90423524635
:10401000A3540132A55445214620082265540B3390
:104020002554FF324339200001950096FEF742FDEA
:1040300010225049300005F061F94A46A554424625
:104040004B23A55408220221E555FF32E5542000F8
:10405000373B01950096FEF72DFD474B60689B6A44
:10406000464AA344191A914200D870E02000132256
:10407000FF214E3005F03CF95023E722E254033390
:104080000732E25401332F3AE2540233403AE25409
:1040900030003B496D3A05F031F90822292302210D
:1040A000FF3220000096FEF797FD322002F05AFA08
:1040B0000123382200252000A3540132A5540132E7
:1040C000A5540132A5540132A3543C33E5542232A5
:1040D0000133E2540133E5540133E5549D32013399
:1040E000E2540021C53A423005F002F93100402285
:1040F000584618F059FD0B223000224905F0FEF811
:1041000008224B230221FF3220000096FEF764FDB7
:10411000322002F027FA002302220221200000951B
:10412000FEF75AFD322002F01DFA002003B0F0BC69
:10413000BB46B246A946A046F0BD4427E0554520FF
:104140002D0E25540130225401302254EFE6C01ABE
:104150000D4B00219C46604402F0ECF986E7C04616
:1041600044D6011018D5011024D501103CD50110FA
:104170004CD5011058D5011000400540EF49020010
:1041800068D501107CD50110F049020070B5060019
:104190000D000E493836040082B014223031300050
:1041A00005F0ACF883222000142300210096520071
:1041B000FEF712FD041E02D0200002B070BD0622E0
:1041C0003100280005F09AF8F6E7C04644D6011001
:1041D000F0B5DE464E4657464546E0B504008B46F0
:1041E000994683B0C82A00D8AEE0C8223823984642
:1041F0009500A04440465749AD180E2205F07EF8C0
:104200004623472642466D00E5542D0AA555002554
:10421000009208229A460233E5540133E554022104
:10422000373B20000195FF32FEF744FC0B2240464D
:10423000494905F063F84A4643234427E254130AE8
:10424000E3554946130C4522A3540B0E5146082250
:10425000635441460F230091200002210195FF3253
:10426000FEF728FC0C2240463C4905F047F8452261
:104270000C9920000B0AE155A3540B0C51466354D2
:104280000C9908220F0E4146A75510230091019565
:104290000221FF32FEF70EFC0D224046304905F0A8
:1042A0002DF845220D992000A15452460B0AA35423
:1042B0000B0CA35548230E0EE65408224346022158
:1042C000009301951123FF32FEF7F4FB5A46382381
:1042D000E2549A4601339946130A4A46A3545B4670
:1042E0003A271B0CE3555B463B26190E4346A15566
:1042F00000930221042320001D32FEF76DFC52467C
:104300000123A3544B46E5544346E555009302214F
:1043100004232000A5553632FEF75EFC5346E554D3
:104320004B46E5544346E55500938E220423022173
:104330002000A555FEF750FC002003B0F0BCBB46A2
:10434000B246A946A046F0BD002A00D04EE7013291
:104350004CE7C04688D5011098D50110A4D50110AE
:10436000B0D50110F0B54546DE464E465746E0B59D
:104370000600A7B038360400039288460F22AF49E2
:104380003000319D049304F0B9FF47230822E25422
:1043900000234032A3540132A3540132A354082213
:1043A00001930221133320000096FF32FEF782FBB7
:1043B0006B1C00D129E1A24B9D4200D121E1A14B10
:1043C0009D4200D128E1A04B9D4200D033E104235F
:1043D0000593023B0025392138228B46A3546554AE
:1043E00001318A46655401318946042365544E32B1
:1043F000393920000096FEF7EFFB0F229349300079
:1044000004F07CFF47234B2001214C270822E55470
:104410000133E5540133E5540133E55421540333AA
:10442000E5550237E554FF32363BE55501312000B2
:104430000096FEF7D1FB17228549300004F05EFF9D
:104440004F225021FF230337A55465540432E5550C
:104450000137E555A3540132A3540132A35401326C
:10446000A3540822E03BFF324E3920000096FEF7AD
:10447000B3FB13227749300004F040FF4B204D235B
:1044800008222554013025540230E5542554773351
:1044900001302354BB3B01302354013012332554E7
:1044A0000221E555FF3220000096FEF795FB012121
:1044B000049806AF02003880798007A8309904F08C
:1044C0001DFF022002F04EF88622442302215200F2
:1044D00020000097FEF780FB584601233822A354A2
:1044E0002554504625544846042302212554243A95
:1044F00020000096FEF770FB58463822A55425543C
:10450000504625544846042302212554223A2000CF
:104510000096FEF761FB3823059A0221E2545B46C0
:10452000E5545346E5544B46A522E5542000373B5D
:104530000096FEF751FB4346DBB21A004046464B5D
:104540000492E254030AD8B2444B8246E0544046F7
:10455000030CD8B2424B8146E0544046414B000E1A
:10456000E05483468220000142460399201804F05B
:10457000C5FE3298002853D03C22002107A804F041
:10458000B7FE5046049A03021A43484613005A469F
:10459000010412060B4313430399424607A80693EE
:1045A00004F0ACFE242306223299FD5414A8253BC6
:1045B000109311931293139304F0A0FE8023339A67
:1045C0005B011343012144222000BB5216910232A9
:1045D00039003D3004F092FE05222349300004F0FA
:1045E0008DFE08224B23022120000096FF32FEF7A9
:1045F000F3FA002027B0F0BCBB46B246A946A0465D
:10460000F0BD802305937C3BE4E6309B2800002B23
:10461000F0D0049B002BEDD0802305937A3BD9E6A4
:104620000D4B1A22E3180093022124232000FEF7E9
:10463000D3FA0020DEE701204042DBE73CD5011041
:10464000040040000600400002002000C0D5011018
:10465000D0D50110E8D501101C0800001D0800008D
:104660001E0800001F080000FCD50110382304229A
:1046700000B5C254002335328354013283540132D1
:104680008354030083B038330093022104236A3239
:10469000FEF7A2FA03B000BD00B5054B83B0C31806
:1046A00000931A2224230221FEF796FA03B000BDDC
:1046B0001C080000F0B5DE4657464E464546E0B5BC
:1046C00006000F00A54985B0383604000392543126
:1046D000042230009A4604F011FE01239946484610
:1046E0003B33E0543F2100233E2583223C302354BA
:1046F0005200635588466354200000210833009619
:10470000FEF76AFA382339203A21E25C235C655CC3
:104710001B028B4601311A43635C2D0415431B06B3
:104720001D4307D0002005B0F0BCBB46B246A946E9
:10473000A046F0BD0F228A49300004F0DFFD0223BD
:1047400047224921A3540132A55402326554A5548D
:1047500008221133FF324739200001950096FEF7F9
:10476000A9F9382349463920E154594625540433E0
:104770006554013165543E22E75404303B0A23540A
:1047800040463B0CA3543B0E235401308046A044CA
:1047900000211E3A404604F0ABFD3A000399404622
:1047A00004F0ACFD200028223100443018F0FCF960
:1047B0000C226C49300004F0A1FD082234230221B0
:1047C000FF3220000096FEF707FA109B39209C4626
:1047D0001F1C3823E75467463B0A235458463B21A5
:1047E0003B0C23543B0E63541E2204233939200012
:1047F0000096FEF7F1F90C225B49300004F07EFDD3
:1048000044234846E0540133E5540133E554013371
:10481000E554482253464927A3541B0AE3555346FF
:1048200001371B0CE355534608221B0E0137E35595
:104830000221142320000096FF32FEF7CDF95346E3
:10484000002B4CD0494B4A4953445A4253417F2292
:104850005B429343984684239C466F3A3000E04481
:1048600004F04CFD48224B46A3540132A5540132BA
:10487000A55442464B33E555E25408220133E55432
:104880000133E5540133E5540221373BFF32200068
:104890000096FEF7A1F9382339200E9A3B21E25405
:1048A000130A23544A465B46E254655425003C35BE
:1048B00000213F32280004F01BFD0E9A0F992800BA
:1048C00004F01CFD022001F04DFE4B4686220193B0
:1048D00002212000009643335200FEF7EBF8012737
:1048E00038230025E7549B460133E5549A460133AB
:1048F000E554994601339846E5546E22373B022130
:10490000200001970096FEF7D5F8092230001949DA
:1049100004F0F4FC41231622E25408220133E5544A
:104920000133E5540133E55402212000019700963C
:10493000373BFF32FEF7BEF85B46E7545346E5547B
:104940004B46E55443464E22E55402212000019790
:104950000096373BFEF7AEF8E4E6C04644D60110B9
:104960003CD5011004D6011010D60110FEFFDFFF68
:104970001CD601102CD6011070B506003836040084
:1049800082B00D00042230000F4904F0B7FC3C2334
:104990000122E25400233C32A3540132A3540132D9
:1049A000A3540132A5540132A3540132A35401325D
:1049B000A3540221200000960C33C432FEF70CF9F8
:1049C000002002B070BDC04638D60110F0B504001A
:1049D00083B002292BD801238B40002A24D1002741
:1049E000DDB22600383608221249300004F086FC79
:1049F00040234122E5540023A3540132A354013241
:104A0000A3540132A7540132A3540132A3540132FA
:104A1000A35408220221200000961033FF32FEF733
:104A2000DBF8002003B0F0BDDFB23D00D9E7012084
:104A30004042F7E73CD60110F0B5070004000E0035
:104A4000150083B03837022926D815490922683164
:104A5000380004F053FC8322092300212000009732
:104A60005200FEF7B9F8002814D10123B3403922CF
:104A70001E003823A25CE35C12021A433A23E15C75
:104A80000133E35C09040A431B06134333405A1EF7
:104A900093412B7003B0F0BD01204042FAE7C046BD
:104AA00044D6011010B5006800F01EFA01384342E8
:104AB0005841C0B210BDC0460B4B10B583610B4BC3
:104AC0003A2243610A4B040003863923C254020090
:104AD0000233C15C32323039406A00F08DFB38233A
:104AE00006220020E25410BDF54A0010D95D0110E5
:104AF000DC05000010B50B000A893B210124415C54
:104B000082B0406A3039009400F016FB01000020AA
:104B1000002901D102B010BD024804F00DFE0C20A6
:104B20004042F7E7A0D90110F0B504000D0089B0AC
:104B300000292AD08F0177212E4B2F4A0693049308
:104B40002E4B05932E4B07932E4BFE18C3199A1824
:104B500011702D4A861994462A00634430321A7027
:104B60002A4B009002932A4B3000019305AA06AB12
:104B700004A907F053FF002E1FD1002008F01AF8F7
:104B8000002008F01DF809B0F0BD224B224A069320
:104B90001A4B049105931A4B04A90793194B00274C
:104BA000C618154BC252194B00900293184B300097
:104BB000019305AA06AB07F031FF90231B019C4629
:104BC000E719164B674430003B6007F0F3FF3000F5
:104BD00007F0F6FF002DD6D107A9002007F068FCEA
:104BE0000F4B3000E1180EF01BF930000EF0ACFA5C
:104BF000C9E7C046C0A804010E090000FFFFFF007E
:104C000008080808D40800000F0900006D7301109F
:104C1000B94A0010C0A8000177300000C4D90110C3
:104C200054090000104B70B59C468C016444041973
:104C3000002914D00D4B1B68002B06D00025392607
:104C40009C4203D01B68002BFAD170BD200007F0F6
:104C500067FF6560A5552368002BF1D1F5E72000BB
:104C60000EF068FCE6E7C046D40800006CC50020E2
:104C7000F8B5CE46474699468D01144B80B5471985
:104C8000FB181B7804005B0703D4C0BCB946B046D0
:104C9000F8BD96B2C12231000020520008F024F87D
:104CA00080460028F1D04946320008F049FB084B05
:104CB0004046E918074B61189C4667443B68984793
:104CC0000028E2D0404608F0A9F9DEE70D0900000F
:104CD000D4080000E4080000044B10B59C4689018C
:104CE0006144401807F092FF10BDC046D408000090
:104CF000044B10B59C4689016144401807F0AEFF93
:104D000010BDC046D40800000A4A8B01C3189A1887
:104D100010B5147805222240052A07D1064A944688
:104D200063441868431E9841023010BD00F0D0FB68
:104D3000FBE7C0460D090000D808000010B5284B5D
:104D400082B01B68002B17D0264C2000FFF7AAFE6C
:104D500000283DD1244BE25C002A2CD1234BE25C9D
:104D6000002A1ED1224BE25C002A0CD1214B1B6889
:104D7000002B03D0FCF7F4F802B010BD0121200095
:104D8000FEF736FAF6E700222000E254FFF784FC33
:104D9000862301221B01E250164B1B68002BE9D130
:104DA000ECE700222000E254FFF760FC104BE25CCD
:104DB000002ADBD0E7E700226921E254200000232B
:104DC0000092FEF705FA094BE25C002ACAD0E8E738
:104DD0002000FEF7C9F9044BE25C002ABED0EAE7E6
:104DE00068180020701800206D0800006F0800008F
:104DF0006E0800006C18002070B58023D025802636
:104E000004002D065B04AB6236040022002118204A
:104E100000F0A0FC6E6200220021172000F09AFC36
:104E2000AE6121002000FEF75FF900230321084A4C
:104E3000A354084AA3500432A3501032A154064A86
:104E4000A352064A13600122054BE25070BDC046D2
:104E5000540800005C080000720800006818002078
:104E60006C080000F8B51B4E04003368002B30D0EE
:104E70000021FFF7D7FE01212000FFF7D3FE20001D
:104E8000FEF73EF9D025802380275B042D06AB6218
:104E90000022002118203F0400F05CFC00220021C9
:104EA00017206F6200F056FC21002000AF61FEF772
:104EB0001BF900230321084A3360A354074AA35077
:104EC0000432A3501032A154054AA3520122054BCB
:104ED000E250F8BD68180020540800005C0800008B
:104EE000720800006C080000D0231B065868C0013F
:104EF000C00F70473222014B1A6070476C180020B7
:104F0000804B70B5C35805000C00DB072ED46368D6
:104F1000452B1BD00B2B54D0172B0CD0002B00D0C3
:104F20006FE0A368002B65D186231B01EB58764AFE
:104F300093423DD070BDA368002BF5D1E368082BE8
:104F4000F2D10222714BFF32EA5269E0704BEA580B
:104F5000012AE9D1A268082A00D1B0E0002AE3D1F1
:104F60000222EA5086231B01EB58E0E701F0E8FB40
:104F700000292FD0FA220023920003F063FD6288FB
:104F80000100644804F0D8FB616858292ED8624BB0
:104F90008A00D358002B29D01900604804F0CCFBBC
:104FA0002E23E268E35CA1685D4804F0C5FBAEE730
:104FB000862301221B0100212800EA50FFF78CFE06
:104FC000B8E700212800FFF793FE862300221B018B
:104FD000EA50AFE7FA21890003F0F2FC6288010091
:104FE0004C4804F0A9FB61685829D0D94D4804F019
:104FF000A3FBD5E7032B5BD0862302221B01EA50DB
:1050000098E7032B10D0062B24D1A368002B00D0E7
:105010008AE7E368022B00D086E7434B0122EA547B
:105020004248FBF7DDFF7FE7A368002B27D18623EB
:105030001B01EA580F2319001140042903D19A4398
:10504000130001221A4380239B001343862212017E
:10505000AB506CE7102B1AD1A368002B00D063E78C
:105060006388DB073ED52E23E15C002943D18622ED
:1050700080231201A958DB000B43AB5057E7062BE6
:1050800000D151E7862304221B01EA5052E72E2B60
:1050900000D049E7A368062B1CD004211A1F8A43BD
:1050A00001D00B2BEED1E3680F2BEBD1174BB5E7FB
:1050B000E268002AA0D186221201AB503AE7210013
:1050C0001B4B3031E8581B4BEB58984786231B018C
:1050D000EB582CE7862280231201A9581B010B43B1
:1050E000AB5024E72E232800E15CFFF701FE862366
:1050F0001B01EB581BE72800FFF7EEFD86231B0181
:10510000EB5814E758080000010E00006E0800007C
:105110005C080000CCD9011094DA0110E0D901102C
:10512000E8D90110E4D901106D0800003D4D0010D0
:105130006408000068080000F0B557464E46454632
:10514000DE46E0B583B01F000CAB1B780D0099461E
:10515000244B040098461B6816009A460021002B39
:1051600010D0FEF745F84B463200009329003B0073
:105170002000FDF7C9FF03B0F0BCBB46B246A9460C
:10518000A046F0BDFFF74EFD01212000FFF74AFDCC
:105190005246154B1420E254D0231B069A46802316
:1051A0001B049B4653465A469A6101F0DBF953466D
:1051B0005A4632205A6101F0D5F900212000FEF74D
:1051C00031F80028D7D1094B2000E118FEF7DEFFA7
:1051D0003222074B07481A6043461860FBF700FF6E
:1051E000C1E7C04668180020540800008809000084
:1051F0006C1800203D4D001010B500201100FBF789
:105200005BFE002010BDC046F0B5CE46474680B5D7
:1052100004000D001E0085B0002A10D0A24FC35D0F
:10522000002B1BD0012D48D09F4F0126E35D2B4161
:105230001E4235D005B0C0BCB946B046F0BD01290C
:10524000F8D19A4E00213568002D00D1DAE0FDF743
:10525000CFFF00212000FFF78FFBEBE7934B0021EE
:1052600098461B689946002B50D0FDF7C1FF3100CE
:105270002000FEF733FE0028DCD143461E680021E3
:105280002000002E00D194E0FDF7B2FF0A23019325
:10529000093B1422022120000093FEF799FFC1E789
:1052A000AE4029002000FFF7BDFC29002000FFF7D9
:1052B0003BFCE35D1E43E655BCE77C4B00211E68CA
:1052C00098462000002E4CD0FDF792FF784A794B8B
:1052D000A15C023AA25C20000292774AE35CA21829
:1052E0000192764AA25C0092754AA218FFF7E2F991
:1052F00043461E6800212000002E00D1AAE0FDF7E1
:1053000077FF01212000FFF737FB8DE7FFF78AFCCD
:1053100001212000FFF786FC4B46E3558023D02770
:105320001B0499463F061420BB6101F01BF94B4654
:1053300032207B6101F016F900212000FDF772FF99
:10534000002800D076E75F4B2000E118FEF71EFF33
:1053500032225D4B5D481A6043461860FBF740FE01
:1053600085E7FFF75FFC01212000FFF75BFC4E4B58
:105370008027E654D0263F0436061420B76101F09A
:10538000F1F83220776101F0EDF800212000FDF7FF
:1053900049FF0028ACD14B4B2000E118FEF7F6FE88
:1053A0003222494B49481A6043461860FBF718FE01
:1053B0008CE7FFF737FC01212000FFF733FC3A4B65
:1053C0008027E654D0263F0436061420B76101F04A
:1053D000C9F83220776101F0C5F800212000FDF7FF
:1053E00021FF002800D01DE7364B2000E118FEF712
:1053F000CDFE3222344B35481A6043461860FBF725
:10540000EFFD43E7FFF70EFC01212000FFF70AFC48
:10541000254B8027E554D0253F042D061420AF618D
:1054200001F0A0F832206F6101F09CF8002120000B
:10543000FDF7F8FE002800D0FCE6224B2000E11822
:10544000FEF7A4FE3222204B20481A603060FBF7A2
:10545000C7FDFEE6FFF7E6FB01212000FFF7E2FBB8
:10546000114B8027E654D0263F0436061420B7613E
:1054700001F078F83220776101F074F80021200003
:10548000FDF7D0FE002800D0CEE60E4B2000E1183C
:10549000FEF77CFE32220C4B0C481A604346186023
:1054A000FBF79EFD2DE7C046540800006818002059
:1054B00072080000710800009408000073080000E2
:1054C00074080000880900006C1800203D4D001091
:1054D0000300081E0DD1862212019B580F22134093
:1054E000012B08D0022B0AD0032B0BD0042B04D0A5
:1054F00070470020FCE70120FAE70338F8E70120B5
:105500004042F5E702204042F2E7C046F0B5464689
:105510004F46D646C0B51F00324B04009846C35CC8
:105520000D00160084B0DB0759D52F4B002199469A
:105530001B689A46002B1ED0FDF75AFE0F9B3200C7
:1055400003930E9B290002930D9B200001930C9B5B
:1055500000933B00FEF706FF002806D10D9B002BB1
:1055600038D18623214A1B01E25004B0E0BCBA4680
:10557000B146A846F0BDFFF755FB01212000FFF71B
:1055800051FB43465246E254D0231B0698468023E3
:105590001B049A464346524614209A6100F0E2FFEB
:1055A0004346524632205A6100F0DCFF00212000C1
:1055B000FDF738FE0028D8D10D4B2000E118FEF78A
:1055C000E5FD32220B4B0C481A604B461860FBF786
:1055D00007FDB3E7862301221B01E250C5E7042043
:1055E0004042C2E75408000068180020010800008B
:1055F000880900006C1800203D4D0010F8B54746A2
:10560000CE4680B51D4F88463D6804001600002137
:10561000002D0AD0FDF7ECFD320041462000FFF7D7
:10562000D5F9C0BCB946B046F8BDFFF7FBFA012179
:105630002000FFF7F7FA124B1420E5548023D02501
:105640001B0499462D06AB6100F08CFF4B463220BF
:105650006B6100F087FF00212000FDF7E3FD0028CB
:10566000DFD1084B2000E118FEF790FD3222064BF7
:1056700006481A603860FBF7B3FCCDE768180020D5
:1056800054080000880900006C1800203D4D0010EF
:10569000F8B54746CE4680B51D4F88463D680400A4
:1056A00016000021002D0AD0FDF7A2FD3200414670
:1056B0002000FFF7C1F9C0BCB946B046F8BDFFF7FE
:1056C000B1FA01212000FFF7ADFA124B1420E55486
:1056D0008023D0251B0499462D06AB6100F042FFC4
:1056E0004B4632206B6100F03DFF00212000FDF7AA
:1056F00099FD0028DFD1084B2000E118FEF746FD98
:105700003222064B06481A603860FBF769FCCDE789
:105710006818002054080000880900006C18002058
:105720003D4D0010094A830094464022634410B561
:105730001C68C0006240C024144080225201134300
:105740001C60034B9C466044416010BD04C0014096
:10575000004001400A4B80009C460423604400291D
:1057600001D00C230821002A00D10B00026853400D
:105770000C221A4080235B01184302607047C04628
:1057800004C00140084B80009C466044002905D0BD
:1057900080239B011843022303607047C0239B01B1
:1057A000184302230360F8E704C00140D0231B061E
:1057B0001B6830B50500581E83410F485C42844683
:1057C00007203023284023408000EC08814020003F
:1057D0000A4D3C3063448000A40041511B19002A4B
:1057E00004D0802292011343196030BDC02292017F
:1057F00013431960F9E7C0460041014000400140F1
:10580000D023F0B5C64604001B0698461B680C4F13
:105810009B00F8580D00160000B5044209D104435E
:1058200032002900FC500D2000F0B0F880BCB846D2
:10583000F0BD01F037FB43461B689B00F858EEE7CC
:1058400088C5002010B504000D2000F091F9D02388
:105850001B061B6802499B005A58A2435A5010BDB0
:1058600088C50020084B80009C466044002905D074
:1058700080239B011843402303607047C0239B0192
:10588000184340230360F8E704C001400123D022FD
:105890008340120693629361094A83009446402232
:1058A00063441968C0004A40C0211140802252015F
:1058B00013431960034B9C460523604443607047C3
:1058C00004C001400040014001238340002904D06E
:1058D000034A1360034A13607047034A1360FBE7EF
:1058E00080E200E000E100E080E100E0012383408D
:1058F000014A13607047C04600E200E0084B1030D8
:105900009B688000C358002B07D0064A00209B1AD2
:105910002F229A424041C0B270470020FCE7C046A7
:1059200000ED00E0B4040020024B10309B688000C2
:10593000C058704700ED00E070B50D00EFF3108621
:1059400072B60F4A1368002BFCD0BFF35F8F0D4B6C
:1059500010309B6884001B590B4A934203D09D4230
:1059600001D001F09FFA074B9B681D51BFF35F8F79
:10597000BFF35F8F0022024B1A6086F3108870BD60
:10598000240100D000ED00E0CD010010F0B5574635
:105990004E46DE464546E0B585B00600029117004A
:1059A000EFF3108B72B6674A1368002BFCD0BFF37D
:1059B0005F8F0025644B5D579A46002D00DAA5E005
:1059C0006B00624C03935B199B009846A146C1444F
:1059D0004B4652469B79103613705D4BB2009B6864
:1059E000019299580B1B2F2B34D95A4B994200D056
:1059F000A5E0039B584A9C46584B6544AD00635351
:105A0000434602336519E418554B0121043B1B1B27
:105A10001B055B0D13436B80524BEF71AB80FF2373
:105A2000AB71029BAB604B460B431900484B019A8C
:105A30009B689950BFF35F8FBFF35F8F0022414B8C
:105A40001A608BF3108805B0F0BCBB46B246A9467D
:105A5000A046F0BD01200A008243D379BB422FD873
:105A600045464E46130040491B1B5B415943090DF7
:105A70003A4B63533A4B02356519043B5B1B1B05DC
:105A8000354D5B0D2B4373800426B446E0444444FB
:105A9000131F1B1B4C46A17102991B05A1604946AF
:105AA0005B0D2B43A380314BE77101431360BDE7CE
:105AB0005800C01880002018C679BE422CD90200B8
:105AC0000623D356002BF3DA101D8246BD200002B8
:105AD000804604267642B446E14450464E46361A85
